:020000040800F2
:10000000484A00209D010008E5320008A3270008A7
:10001000E1320008B10F0008F737000800000000C7
:1000200000000000000000000000000005010008C2
:10003000B50F00080000000049010008C93500089C
:10004000B7010008B7010008B7010008B7010008B0
:10005000B7010008B7010008B7010008B7010008A0
:10006000B7010008B7010008B7010008B701000890
:10007000B7010008B7010008B7010008B701000880
:10008000B7010008B7010008B7010008B701000870
:10009000B7010008B7010008B7010008B701000860
:1000A000B7010008B7010008B7010008B701000850
:1000B000B7010008B7010008B7010008B701000840
:1000C000B7010008B7010008B7010008B701000830
:1000D000B7010008B7010008B7010008B701000820
:1000E000B7010008B7010008B7010008DFF810D019
:1000F00000F096F800480047993D0008AFF30080F3
:10010000484A0020224B19680868B0E8F00F80F3D5
:100110000988BFF36F8F4FF0000080F311884EF015
:100120000D0E70470000000006480068006880F36C
:10013000088862B661B6BFF34F8FBFF36F8F00DFE1
:1001400000BF00BF08ED00E0EFF30980BFF36F8F41
:100150000F4B1A6820E9F00F106008B54FF0BF0090
:1001600080F31188BFF34F8FBFF36F8F04F0FAF95C
:100170004FF0000080F31188BDE808401968086856
:10018000B0E8F00F80F30988BFF36F8F704700BFAE
:1001900048000020EFF305807047000006488047C4
:1001A00006480047FEE7FEE7FEE7FEE7FEE7FEE75C
:1001B000FEE7FEE7FEE7FEE765360008ED00000813
:1001C000D2B201E000F8012B491EFBD27047002299
:1001D000F6E710B513460A4604461946FFF7F0FF46
:1001E000204610BD421C10F8011B0029FBD1801ACB
:1001F000704730B50B46014600202022012409E05B
:1002000021FA02F59D4205D303FA02F5491B04FACF
:1002100002F52844151EA2F10102F1DC30BD0000F8
:10022000064C074D06E0E06840F0010394E8070043
:1002300098471034AC42F6D3FFF75CFFA85400088F
:10024000C85400081CB5352217A11FA003F0D6FA28
:100250002548012100238022CDE9001023A1274851
:1002600004F0E4F92648022100238022CDE90010A1
:1002700024A1274804F0DAF926480321002380222C
:10028000CDE9001024A1274804F0D0F92648022126
:1002900000238022CDE9001024A1274804F0C6F9EC
:1002A00004F022F91CBD00002E2E5C4170706C69B8
:1002B000636174696F6E5C4170705F6672656552F0
:1002C000544F532E630000005B25733A25645D7420
:1002D00061736B2D737461727420657865637574D6
:1002E000650A0D0A0000000034000020636F6C6C8A
:1002F0006563745F7461736B00000000ED3C00087F
:100300003800002073686F775F7461736B000000C2
:10031000ED4200083C0000207377697463685F74E5
:1003200061736B005943000840000020616C6172EA
:100330006D5F7461736B0000E93B000810B502F05B
:1003400039FE10BD10B51648807968B1022201212E
:100350000D2002F0AFFD124880790830C2B20121B1
:100360000E2002F003FE04E00EA201210D2002F097
:10037000C5FD0B48C07968B1022211460D2002F07C
:1003800099FD0748C0790830C2B202210E2002F060
:10039000EDFD04E003A202210D2002F0AFFD10BD2F
:1003A0002A0000202020200010B508210F4800F06E
:1003B00095FF28B9002211460E2002F07BFD04E0D3
:1003C0000BA200210E2002F099FD0421074800F045
:1003D00085FF28B9012200210F2002F06BFD04E007
:1003E00003A200210F2002F089FD10BD000801408A
:1003F0002000000010B500F0B3F900F0DFF9FFF7BE
:10040000D3FFFFF79FFF00F099F910BD10B502224E
:100410000121032002F04EFD02221146032002F0CA
:1004200049FD3D48007801282BD100203A49087049
:100430003A48437802783AA13C4803F0EFF93B4A46
:100440000121052002F05AFD34480379C27834A115
:10045000364803F0E3F9354A0221052002F04EFD4B
:100460002E4880790830C2B201210B2002F07EFDB7
:100470002A48C0790830C2B202210B2002F076FD72
:1004800049E001202449087029480078062840D214
:10049000DFE800F0030F1B212D392048427825A109
:1004A000224803F0BBF9214A0121052002F026FD74
:1004B00030E01A48027821A11C4803F0AFF91B4A2A
:1004C0000121052002F01AFD24E01EA201210B20CB
:1004D00002F014FD1EE01148027916A1134803F042
:1004E0009DF9124A0221052002F008FD12E00B4896
:1004F000C27812A10D4803F091F90C4A022105209F
:1005000002F0FCFC06E00FA202210B2002F0F6FC38
:1005100000E000BF00BF10BD440000202A00002002
:10052000253032643A253032640000007401002026
:100530002900002020203A25303264002530326422
:100540003A2020002020000008B538480078012813
:100550001ED1002035490870354880780090344815
:100560004378C27833A1374803F058F9354A01215E
:10057000042002F0C3FC34484378027833A13148A8
:1005800003F04CF92F4A0221052002F0B7FC4CE0A1
:1005900001202649087030480078052843D2DFE85A
:1005A00000F003101D2A36002148837842782BA1E1
:1005B000244803F033F9234A0121042002F09EFC71
:1005C00032E01B488378C27828A11E4803F026F940
:1005D0001C4A0121042002F091FC25E014484378D4
:1005E000C27826A1174803F019F9164A0121042000
:1005F00002F084FC18E01448427824A1114803F06A
:100600000DF9104A0221052002F078FC0CE00E489A
:10061000027820A10B4803F001F90A4A02210520C3
:1006200002F06CFC00E000BF00BF08BD44000020E9
:100630001B000020253032642D253032642D2530FA
:100640003264000074010020140000202530326460
:100650003A253032640000002800002020202D259B
:100660003032642D253032640000000025303264C1
:100670002D20202D2530326400000000253032640A
:100680002D253032642D20200000000020203A2546
:1006900030326400253032643A20200010B5224800
:1006A0000078D0B121480078B8B9214800881E28C8
:1006B00013DA1F480088401C1D490880084600883E
:1006C0001E280ADB01201B4908701B48007820B156
:1006D00002F080FB0020184908701348007860B9C8
:1006E0000020144908701448007830B102F072FB01
:1006F0000020114908700E4908800B48007890B11D
:100700000C48007810B10948007860B10A480078B8
:1007100048B902F06BFB0120074908700020054929
:1007200008700349088010BD20000020210000202F
:1007300022000020240000202500002010B505A282
:100740000321002002F0DAFB0B220321082002F033
:100750000DFC10BD4C4F5645204D414F0000000090
:1007600010B50C2203210E2002F000FC0F48027885
:100770000FA1104803F052F80E48FFF733FD0E4961
:10078000087008460078012805D10A4A03210D2087
:1007900002F0B4FB08E008480078022804D1054ABA
:1007A00003210C2002F0AAFB10BD00001000002065
:1007B00025640000740100204500002038B59D48E4
:1007C000807800909B484378C2789BA19E4803F0B4
:1007D00025F89D4A0021084602F090FB00221146B0
:1007E000092002F0C3FB9348007810B191480078CB
:1007F00000E00720024600210B2002F0B7FB9348DF
:10080000007868B392A20221002002F077FB9148A1
:1008100000780A280BDA00220121022002F006FBF0
:100820008C4802780121042002F000FBC0E08948D6
:1008300000780A2190FBF1F0C4B222460121022087
:1008400002F0F4FA834800780A2190FBF1F201FBF0
:100850001200C4B222460121042002F0E7FAA7E008
:100860007C48007878B97CA20221002002F046FB87
:1008700001221146022002F0D9FA022201210420AD
:1008800002F0D4FA94E073480078012814DB714830
:100890000078092810DC70A20221002002F02EFB53
:1008A00000220121022002F0C1FA6A4802780121E7
:1008B000042002F0BBFA7BE0664800780A2821DBBE
:1008C000644800780B281DDC63A20221002002F09E
:1008D00015FB604800780A2190FBF1F0C4B2224673
:1008E0000121022002F0A2FA5A4800780A2190FB66
:1008F000F1F201FB1200C4B222460121042002F0F1
:1009000095FA55E0534800780C280FD153A20221E4
:10091000002002F0F3FA01221146022002F086FACA
:1009200002220121042002F081FA41E049480078C6
:100930000D2816DB47480078152812DC47A2022153
:10094000002002F0DBFA00220121022002F06EFA00
:10095000404800780C38C2B20121042002F066FA47
:1009600026E03C480078162822DB3A480078172811
:100970001EDC3AA20221002002F0C0FA35480078BD
:100980000C380A2190FBF1F0C4B22246012102206A
:1009900002F04CFA2F4800780C380A2190FBF1F253
:1009A00001FB1200C4B222460121042002F03EFAEB
:1009B0002B480078012808D10A220121062002F0E4
:1009C00035FA0020264908700AE02548007838B931
:1009D0000B220121062002F029FA0120204908708B
:1009E0001C4840780A280BDA00220121082002F076
:1009F0001DFA1848427801210A2002F017FA17E080
:100A0000144840780A2190FBF1F0C4B2224601213B
:100A1000082002F00BFA0F4840780A2190FBF1F20F
:100A200001FB1200C4B2224601210A2002F0FEF9A5
:100A300038BD000017000020253032642D253032EB
:100A4000642D253032640000740100201F00002056
:100A50002020000011000020414D0000504D0000FA
:100A60004400002070B502F033F9044602F000FBA8
:100A700005460CB9012D0DD13748007850B13748E3
:100A8000007838B93648007820B100203449087021
:100A900034490880092C5BD2DFE804F05A05105A6B
:100AA0005A562755310030490978481C00EBD0715F
:100AB0004910A0EB41012C4A11704AE003F0A6FC5A
:100AC00002F0A0F903F0B4FC284829490A88028002
:100AD00089788170274828490968016000202349E6
:100AE000887001202549087033E003F08FFC02F084
:100AF00089F903F09DFC02202049087029E0204874
:100B00000078401C032190FBF1F201FB12001C490C
:100B100008700846007820B901201A498871C87108
:100B200010E017480078012804D102201549887187
:100B3000C87107E012480078022803D1002011494B
:100B40008871C87105E000BF01200F49087000E0FE
:100B500000BF00BF70BD0000200000202100002069
:100B600024000020220000201F000020140000208C
:100B7000110000201B00002017000020270000208B
:100B8000460000202A0000202600002010B502F0B8
:100B90009FF80446032C11D0042C69D0052C02D0F8
:100BA000062C6FD1CBE06C480078401C062190FBEE
:100BB000F1F201FB120068490870CBE0664800784A
:100BC00050B966480078401C182190FBF1F201FBF7
:100BD0001200624908704AE05F48007801280AD193
:100BE0005E484078401C3C2190FBF1F201FB120072
:100BF0005A4948703BE05848007802280AD15748C3
:100C00008079401C032190FBF1F201FB1200534953
:100C100088712CE05048007803280AD14F48C078EA
:100C2000401C182190FBF1F201FB12004B49C870E7
:100C30001DE04948007804280BD148480079401C41
:100C40003C2190FBF1F201FB1200C1B2434801715B
:100C50000DE041480078052809D14048C079401C82
:100C6000032190FBF1F201FB12003C49C87171E0D5
:100C70003948007868B93948007820B917203749D1
:100C800008705BE065E035480078401E3349087025
:100C900054E03148007801280CD13048407818B928
:100CA0003B202E49487049E02C484078401E2B4993
:100CB000487043E02848007802280CD12748807902
:100CC00018B902202549887138E024488079401EEF
:100CD0002249887132E02048007803280CD11F484F
:100CE000C07818B917201D49C87027E01B48C07884
:100CF000401E1A49C87021E01748007804280DD119
:100D00001648007918B93B211448017116E01348C0
:100D10000079401EC1B2114801710FE00E48007801
:100D200005280BD10D48C07918B902200B49C871AC
:100D300004E00A488079401E0849C8710AE003F0BF
:100D400065FB02F05FF803F073FB002004490870B4
:100D500000E000BF00BF10BD290000202A000020D5
:100D60002700002010B501F0B3FF0446012C06D087
:100D7000022C76D0032C0DD0042C73D155E0714891
:100D80000078401C052190FBF1F201FB12006D4937
:100D90000870D5E06B48007850B96B48C078401CAB
:100DA000642190FBF1F201FB12006749C8703BE03F
:100DB0006448007801280AD163484078401C0D211E
:100DC00090FBF1F201FB12005F4948702CE05D4896
:100DD000007802280BD15C498978481CC11700EBC8
:100DE000D1614911A0EB4111574A91701CE055485F
:100DF000007803280AD155480078401C182190FB40
:100E0000F1F201FB1200514908700DE04D480078E5
:100E1000042809D14D484078401C3C2190FBF1F258
:100E200001FB1200494948708AE04648007860B9E1
:100E30004548C07818B963204349C8704CE042481F
:100E4000C078401E4049C87046E03E4800780128FE
:100E50000FD13D484078012805D10C203A4948700F
:100E60003AE03AE06BE038484078401E3649487036
:100E700032E03448007802280DD1334880780128C8
:100E800003D11F203049887026E02F488078401E0B
:100E90002D49887020E02B48007803280CD12B487E
:100EA000007818B917202949087015E027480078FC
:100EB000401E264908700FE02248007804280BD114
:100EC0002248407818B93B202049487004E01F4868
:100ED0004078401E1D49487032E01D481B490A8871
:100EE0000280897881701B481749096801600022D7
:100EF0001749194801F0D4FA00221649164801F0A2
:100F000053FA1548C27B022101F016F91248427BC0
:100F1000032101F011F91048827B042101F00CF942
:100F20000D48027B052101F007F903F06FFA01F08B
:100F300069FF03F07DFA00200849087000E000BF57
:100F400000BF10BD280000201B000020140000205E
:100F500011000020170000200001002027000020C1
:100F600070B501F077FE054615B1012D08D103E0FB
:100F700001200D49087004E000200B49087000E0D2
:100F800000BF00BF01F018FF044614B1012C08D1C6
:100F900003E001200549087004E0002003490870BF
:100FA00000E000BF00BF70BD200000202100002035
:100FB00000BFFEE7704772B600BFFEE72DE9F847B5
:100FC0000346002294466EE14FF0010808FA02F44D
:100FD000D1F8008008EA0400A0427DD1DFF8DCA24D
:100FE000D1F80480A8EB0A09D0453AD014DCB8F156
:100FF000030F50D009DCB8F1000F31D0B8F1010F68
:101000001CD0B8F1020F49D120E0B8F1110F18D06F
:10101000B8F1120F42D11EE0B9F5881F25D006DCC9
:10102000B9F5803F20D0B9F5801F37D11AE0B9F566
:10103000001F18D0B9F5041F30D117E0D1F80CC04B
:101040002DE0D1F80C8008F1040C28E0D1F80C80D8
:1010500008F1080C23E0D1F80C8008F10C0C1EE01C
:1010600000BF00BF00BF00BF00BF00BFD1F80880B5
:10107000B8F1000F02D14FF0040C0BE0D1F808805A
:10108000B8F1010F03D14FF0080C1C6102E04FF0E2
:10109000080C5C6103E04FF0000C00E000BF00BFF3
:1010A000FF2801D8984601E003F104084646FF28CE
:1010B00002D84FEA820803E0A2F108084FEA880844
:1010C0004746D6F800804FF00F0909FA07F928EAD9
:1010D00009080CFA07F900E088E048EA0908C6F8B0
:1010E0000080D1F8048008F08058B8F1805F7DD18D
:1010F00000BFDFF8CC81D8F8188048F00108DFF88D
:10110000C091C9F81880C846D8F8188008F00108BE
:10111000CDF8008000BF00BF4FEAB9384FEA92090E
:1011200058F829504FEA82784FEA18794FF00F08A3
:1011300008FA09F825EA0805DFF88881434502D155
:101140004FF0000816E0DFF88081434502D14FF0F0
:1011500001080FE0DFF87481434502D14FF0020827
:1011600008E0DFF86C81434502D14FF0030801E04D
:101170004FF004084FEA82794FEA197908FA09F822
:1011800048EA0505DFF84C814FEA920948F82950F2
:10119000D1F8048008F48018B8F5801F0AD1DFF870
:1011A0003881D8F8008048EA0008DFF82C91C9F8A7
:1011B000008009E0DFF82081D8F8008028EA0008E4
:1011C000DFF81491C9F80080D1F8048008F4001801
:1011D000B8F5001F10D1DFF8008108F10408D8F835
:1011E000008048EA0008DFF8F09000E05AE009F1DA
:1011F0000409C9F800800DE0DFF8DC8008F104087C
:10120000D8F8008028EA0008DFF8CC9009F104093A
:10121000C9F80080D1F8048008F40038B8F5003F20
:101220000ED1DFF8B480A8F10408D8F8008048EAAD
:101230000008DFF8A490A9F10409C9F800800DE0C6
:10124000DFF89480A8F10408D8F8008028EA0008A4
:10125000DFF88490A9F10409C9F80080D1F804806E
:1012600008F48038B8F5803F0ED1DFF86C80A8F123
:101270000808D8F8008048EA0008DFF85C90A9F177
:101280000809C9F800800DE0DFF84C80A8F10808D3
:10129000D8F8008028EA0008DFF83C90A9F1080996
:1012A000C9F80080521CD1F8008028FA02F8B8F181
:1012B000000F7FF489AEBDE8F88700000000111030
:1012C0000010024000080140000C014000100140E5
:1012D00000140140080001400804014002469368E0
:1012E0000B400BB1012000E0002070470AB1016102
:1012F00001E00B040361704701480068704700007B
:101300000000002070B504460CB9012070BD94F8AF
:101310003D0028B9002084F83C00204600F092F9F6
:10132000242084F83D002068006820F00100216836
:1013300008602068006840F4004021680860206868
:10134000006820F400402168086000F05FFC05465A
:101350005C496068884206D85B48854201D201201A
:1013600007E0002005E05948854201D2012000E055
:101370000020012800D1C9E75548B5FBF0F62068E8
:10138000406820F03F003043216848604D49606864
:10139000884201D8701C07E04FF4967070434FF4F8
:1013A0007A71B0FBF1F0401C2168096A21F03F011D
:1013B00008432168086243496068884214D8681E5F
:1013C00061684900B0FBF1F0401CC0F30B00042839
:1013D00001D204203DE0681E61684900B0FBF1F0D5
:1013E000401CC0F30B0034E0A06838B9681E616887
:1013F00001EB4101B0FBF1F0401C0AE0681E61689E
:1014000001EBC10202EB0111B0FBF1F0401C40F412
:101410008040C0F30B0008B901201AE0A06848B969
:10142000681E616801EB4101B0FBF1F0401CC0F3A4
:101430000B000CE0681E616801EBC10202EB0111B8
:10144000B0FBF1F0401CC0F30B0040F4804040F4CE
:1014500000402168C9694CF6FF7291430843216836
:10146000C861D4E9070108432168096821F0C00177
:10147000084321680860D4E903100843216889689B
:1014800048F2FF329143084321688860D4E905019E
:1014900008432168C96821F0FF0108432168C8603A
:1014A0002068006840F00100216808600020206486
:1014B000202084F83D000020206384F83E0000BF17
:1014C00024E70000A086010080841E0000093D0082
:1014D00040420F002DE9F8430446894616461F4650
:1014E000DDF82080FFF708FF054694F83D0020282E
:1014F0007ED11923012251492046009501F005FAB9
:1015000010B10220BDE8F88300BF94F83C00012828
:1015100001D10220F6E7012084F83C0000BF2068DA
:10152000006800F0010028B92068006840F0010060
:10153000216808602068006820F400602168086065
:10154000212084F83D00102084F83E000020206413
:1015500066626785608D20853948E0622B46424689
:101560004946204601F03EF908B10120CAE700BF14
:1015700000200090206840690090206880690090F9
:1015800000BF00BF44E02A464146204601F099FAD8
:1015900050B1206C042805D12068006840F4007028
:1015A000216808600120ADE7606A00782168086161
:1015B000606A401C6062608D401E6085208D401E08
:1015C000208520684069C0F3800070B1208D60B133
:1015D000606A007821680861606A401C6062608D02
:1015E000401E6085208D401E20852A46414600E031
:1015F00022E0204601F056F950B1206C042805D1B4
:101600002068006840F4007021680860012079E7D4
:10161000208D0028B7D12068006840F40070216850
:101620000860202084F83D00002084F83E0000BFC0
:1016300084F83C0000BF65E7022063E70200100069
:101640000000FFFF10B586B0044600200290039012
:101650000490059015492068884225D100BF1448A0
:10166000806940F00800124988610846806900F0EE
:101670000800019000BF00BFC0200290122003901C
:101680000320059002A90B48FFF798FC00BF08480B
:10169000C06940F400100649C8610846C06900F4FA
:1016A0000010019000BF00BF06B010BD0054004004
:1016B00000100240000C014003480068034909780B
:1016C000084401490860704700000020080000201D
:1016D00010B50848006840F0100006490860032073
:1016E00000F098F80F2000F007F800F02BF8002029
:1016F00010BD00000020024070B504460E4800787E
:101700004FF47A71B1FBF0F00C490968B1FBF0F5C8
:10171000284600F053FF08B1012070BD102C07D2FD
:1017200000222146501E00F037F80548046001E011
:101730000120F2E70020F0E7080000200C00002064
:101740000400002008B500BF1148806940F0010086
:101750000F4988610846806900F00100009000BFD1
:1017600000BF00BF0846C06940F08050C86108460D
:10177000C06900F08050009000BF00BF00BF054965
:10178000486820F0E06040F00070486000BF08BD8D
:1017900000100240000001402DE9F05F80460D4638
:1017A0001646002702F04EF8074639462A463346C9
:1017B00001F00700C0F1070ABAF1040F02D94FF097
:1017C000040A01E0C0F1070AD14600F1040ABAF1A7
:1017D000070F02D24FF0000A01E0A0F1030AD4463D
:1017E0004FF0010A0AFA09FAAAF1010A0AEA020A02
:1017F0000AFA0CFA4FF0010B0BFA0CFBABF1010BE0
:101800000BEA030B4AEA0B042146404602F022F899
:10181000BDE8F09F00BF00F00702064B19684FF6C5
:10182000FF031940044B0B4343EA0221014B1960AB
:1018300000BF70470CED00E00000FA0501200149EF
:101840000862704700000E422DE9F04706464FF04F
:101850000008002500270024A146012E31D0022EC9
:1018600056D0102E5FD132484468006800F0807076
:1018700008B33048C4F38341475C04F4803078B146
:101880002B484068C0F340402B4911F8008004F415
:10189000803040B12948B0FBF8F000FB07F502E0CA
:1018A000274807FB00F52248406800F48000B0F5A7
:1018B000800F01D1A94603E068000321B0FBF1F9D4
:1018C00032E01B48046A04F44070B0F5807F05D113
:1018D00004F0020010B14FF4004918E004F4407025
:1018E000B0F5007F07D11248406A00F0020010B145
:1018F00049F640490BE004F44070B0F5407F06D152
:101900000B48006800F4003008B14FF224490BE0A6
:1019100000F08CF906494968C1F38131491C49003E
:10192000B0FBF1F900E000BF00BF4846BDE8F0871A
:1019300000100240BE490008CE49000800127A009B
:1019400000093D00F8B5044600260025207800F087
:10195000010000286BD000274348C06900F0805088
:1019600070B900BF4048C06940F080503E49C8612E
:101970000846C06900F08050009000BF00BF0127FA
:101980003A48006800F48070B0B93848006840F404
:10199000807036490860FFF7AFFC064606E0FFF7A7
:1019A000ABFC801B642801D90320F8BD2F480068D8
:1019B00000F480700028F2D02B48006A00F44075D3
:1019C0002DB3A08800F44070A84220D02648006AB9
:1019D00020F4407501202649086000200860224854
:1019E000056205F0010090B1FFF786FC064608E0AD
:1019F000FFF782FC801B41F28831884201D9032025
:101A0000D3E71948006A00F002000028F0D0164819
:101A1000006A20F440706168084313490862012F8E
:101A200004D10846C06920F08050C86100BF20780A
:101A300000F00200022807D10B48406820F4404023
:101A4000A168084308494860207800F01000102879
:101A500007D10548406820F48000E1680843024946
:101A600048600020A1E70000001002400070004024
:101A70004004424270B504460D460CB9012070BDC9
:101A80005A48006800F00700A8420ED25748006884
:101A900020F007002843554908600846006800F018
:101AA0000700A84201D00120E9E7207800F00200F9
:101AB00002281DD1207800F00400042805D14C48EC
:101AC000406840F4E0604A494860207800F008002F
:101AD000082805D14648406840F4605044494860B1
:101AE0004348406820F0F000A1680843404948603E
:101AF000207800F0010078B36068012806D13C48E6
:101B0000006800F4003090B90120B8E7606802284E
:101B100006D13748006800F0007040B90120AEE7F8
:101B20003348006800F0020008B90120A7E73048F8
:101B3000406820F00300616808432D494860FFF7C2
:101B4000DBFB064609E0FFF7D7FB801B41F288313B
:101B5000884202D9032092E707E02548406800F058
:101B60000C006168B0EB810FEDD12048006800F0F7
:101B70000700A8420ED91D48006820F0070028433E
:101B80001A4908600846006800F00700A84201D022
:101B9000012074E7207800F00400042807D11448DD
:101BA000406820F4E060E16808431149486020780B
:101BB00000F00800082808D10D48406820F4605063
:101BC000216940EAC1000A49486000F03FF808492D
:101BD0004968C1F30311074A515CC84006490860CF
:101BE00006480068FFF788FD002048E70020024013
:101BF00000100240D04900080C0000200400002022
:101C000001480068704700000C00002000B5FFF795
:101C1000F7FF04494968C1F30221034A515CC840F7
:101C200000BD000000100240E049000800B5FFF7C9
:101C3000E7FF04494968C1F3C221034A515CC84027
:101C400000BD000000100240E049000870B500210E
:101C50000022002400230020134D696801F00C05C8
:101C6000F5B1042D02D0082D19D101E00F4819E07B
:101C70000F4DC1F38346AB5D01F4803555B10A4D7C
:101C80006D68C5F340450B4E725D084D5D43B5FB75
:101C9000F2F402E0084D03FB05F4204602E000BF29
:101CA000024800BF00BF70BD0010024000127A0061
:101CB000AC490008BC49000800093D00F8B50446DD
:101CC0000CB90120F8BD207800F00100002878D080
:101CD000F848406800F00C0004280CD0F548406833
:101CE00000F00C00082811D1F248406800F4803060
:101CF000B0F5803F0AD1EF48006800F400300028BA
:101D00005FD0606800285CD10120DBE700BF60681D
:101D1000B0F5803F06D1E748006840F48030E549DF
:101D2000086028E0606858B9E248006820F4803014
:101D3000E04908600846006820F4802008601AE046
:101D40006068B0F5A02F0BD1DA48006840F480201D
:101D5000D84908600846006840F4803008600AE00E
:101D6000D448006820F48030D249086008460068F2
:101D700020F48020086000BF606888B1FFF7BCFADB
:101D8000054606E0FFF7B8FA401B642801D9032096
:101D900098E7C848006800F400300028F2D010E04E
:101DA000FFF7AAFA054606E0FFF7A6FA401B6428EB
:101DB00001D9032086E7BF48006800F400300028FE
:101DC000F2D1207800F00200022857D1B9484068CB
:101DD00000F00C0050B1B748406800F00C00082833
:101DE00018D1B448406800F4803098B9B148006810
:101DF00000F0020020B12069012801D0012061E734
:101E0000AC48006820F0F800616940EAC100A949C7
:101E1000086033E02069E8B10120A7490860FFF7B6
:101E20006BFA054606E0FFF767FA401B022801D966
:101E3000032047E79F48006800F002000028F2D026
:101E40009C48006820F0F800616940EAC1009949A7
:101E5000086013E0002098490860FFF74DFA054636
:101E600006E0FFF749FA401B022801D9032029E7C1
:101E70009048006800F002000028F2D1207800F0BD
:101E8000080008282DD1A069B8B101208B4908604D
:101E9000FFF732FA054606E0FFF72EFA401B02284C
:101EA00001D903200EE78348406A00F002000028B1
:101EB000F2D0012001F018FA13E000207F490860F9
:101EC000FFF71AFA054606E0FFF716FA401B02284C
:101ED00001D90320F6E67748406A00F002000028A6
:101EE000F2D1207800F00400042873D10027714853
:101EF000C06900F0805070B900BF6E48C06940F002
:101F000080506C49C8610846C06900F0805000905C
:101F100000BF00BF01276A48006800F48070B0B9B4
:101F20006748006840F4807065490860FFF7E4F98D
:101F3000054606E0FFF7E0F9401B642801D90320BD
:101F4000C0E65F48006800F480700028F2D000BF4F
:101F5000E068012806D15748006A40F00100554961
:101F6000086227E0E06858B95248006A20F0010092
:101F7000504908620846006A20F00400086219E02F
:101F8000E06805280BD14B48006A40F0040049493D
:101F900008620846006A40F0010008620AE045480D
:101FA000006A20F00100434908620846006A20F0F8
:101FB0000400086200BFE068A0B1FFF79DF9054684
:101FC00009E0FFF799F9401B41F28831884202D9B4
:101FD000032077E622E03748006A00F0020000287C
:101FE000EFD012E0FFF788F9054608E0FFF784F923
:101FF000401B41F28831884201D9032062E62D4816
:10200000006A00F002000028F0D1012F05D1294814
:10201000C06920F080502749C86100BFE069C8B39B
:102020002448406800F00C00082860D0E0690228CD
:1020300048D1002020490866FFF75EF9054606E012
:10204000FFF75AF9401B022801D903203AE6194844
:10205000006800F000700028F2D1206AB0F5803FDF
:1020600007D11448406820F40030A16808431149A2
:102070004860D4E9080108430E49496821F4741105
:1020800008430C49486001200B490866FFF734F902
:10209000054607E03DE0FFF72FF9401B022801D974
:1020A00003200FE60348006800F000700028F2D01B
:1020B0002FE0000000100240000042428004424233
:1020C00000700040002014490866FFF715F9054626
:1020D00006E0FFF711F9401B022801D90320F1E5C2
:1020E0000E48006800F000700028F2D111E0E069AD
:1020F000012800D1E6E50948466806F48031206AE7
:10210000814204D106F47011606A814201D001203D
:10211000D8E50020D6E50000000042420010024051
:1021200010B5034600220020024A02EB8102146827
:10213000A0B210BD006C004010B50346002003485B
:1021400000EB810094B2046010BD0000006C004000
:10215000F8B505460C4616460020009005B10CB9AE
:102160000120F8BD00226946284600F01AF808B19F
:102170000120F6E7287B2070E87BE070687B6070C8
:10218000A87BA0705EB1E07801F0CDF8E0706078D7
:1021900001F0C9F86070A07801F0C5F8A0700020C7
:1021A000DFE72DE9F04780460C46914600250026E2
:1021B000AA460027B8F1000F00D014B90120BDE8ED
:1021C000F087D8F800004068C0F3800008B1012013
:1021D000F5E7404601F06EF905464FF46160B5FB46
:1021E000F0F7B5FBF0F100FB11503C21B0FBF1F032
:1021F00060704FF46160B5FBF0F100FB11503C21C1
:10220000B0FBF1F201FB1200A070182F39D3182097
:10221000B7FBF0FAB7FBF0F100FB117020704046FD
:1022200001F03CF90646701C18B1AE4201D9761B8C
:1022300001E04FF0FF360AEB4A00C000C0EB40114E
:10224000C1EB0020A5EB00152946404601F0A5F999
:1022500008B10120B3E7701C38B12E443146404626
:1022600001F084F940B10120A9E73146404601F070
:102270007DF908B10120A2E75146404601F060F81F
:1022800000E02770B9F1000F0BD0207801F04BF877
:102290002070607801F047F86070A07801F043F892
:1022A000A07000208BE7000070B5044600250CB933
:1022B000012070BD607C20B900202074204600F011
:1022C00053F802206074204600F058F918B1042039
:1022D00060740120EDE7204601F08DF818B104206C
:1022E00060740120E5E72068406820F0070021685D
:1022F0004860A06828B11B48006820F00100194917
:1023000008601848001F006820F46070A168084346
:102310001449091F08606068401C08B1656809E03D
:102320000120FFF791FA05461DB9042060740120D1
:10233000BFE76D1EC5F3034021688860A8B221681D
:10234000C860204601F074F818B1042060740120C0
:10235000AFE70021E17301216173A1730120607473
:102360000020A6E7306C004038B504460B492068D1
:10237000884212D1FFF762FA00BF0948C06940F0F5
:1023800000600749C8610846C06900F0006000901D
:1023900000BF00BF01200349086038BD002800408D
:1023A000001002403C0442422DE9F04704460D462D
:1023B000904600260027B14604B115B90120BDE8BA
:1023C000F08700BF207C012801D10220F7E701201F
:1023D000207400BF02206074B8F1000F06D1E978C4
:1023E000E17369786173A978A1730BE0E87800F074
:1023F0008FFFE073687800F08BFF6073A87800F0BF
:1024000087FFA073A27B617BE07B01F06DF82073F6
:10241000207B2870204601F04DF806464FF461609D
:10242000B6FBF0F9B9F1180F2FD91820B9FBF0F06D
:1024300000EB4000C000C0EB4011C1EB0020A6EB58
:1024400000163146204601F0A8F838B10420607427
:1024500000BF0020207400BF0120B0E7204601F03B
:102460001DF80746781C80B1B7420ED20B480744CE
:102470003946204601F07AF838B10420607400BF74
:102480000020207400BF012099E70120607400BF84
:102490000020207400BF00BF91E7000080510100C0
:1024A0002DE9F04704460D4690460026002704B16A
:1024B00015B90120BDE8F08700BF207C012801D1BB
:1024C0000220F7E70120207400BF02206074B8F1F9
:1024D000000F0BD128784FF4616148436978C1EB54
:1024E000011100EB8100A978461812E0287800F06D
:1024F0000FFF4FF4616100FB01F9687800F008FFFD
:10250000C0EB001009EB8009A87800F001FF09EB8F
:1025100000063146204601F040F838B104206074CE
:1025200000BF0020207400BF0120C3E7206840687E
:1025300020F0050021684860204600F0AFFF074604
:10254000781C80B1B7420ED20B480744394620466A
:1025500001F00CF838B10420607400BF0020207432
:1025600000BF0120A6E70120607400BF0020207496
:1025700000BF00BF9EE700008051010070B5044617
:1025800000250CB9012070BD2068406820F00800CB
:1025900021684860FEF7B0FE054607E0FEF7ACFE96
:1025A000401BB0F57A7F01D90320ECE72068406832
:1025B00000F008000028F1D00020E4E770B50446E0
:1025C0002546681EB0F1807F01D301200FE0681E10
:1025D0004FF0E02148610F214FF0FF3001F03AF950
:1025E00000204FF0E021886107200861002070BDC5
:1025F00010B504460CB9012010BDA06900B100E07F
:1026000000BF94F8410028B9002084F8400020461B
:1026100000F02AF8242084F841002068C06820F4E3
:1026200000502168C860204601F01EF8206800694B
:1026300020F49040216808612068406920F02A0059
:10264000216848612068C06840F400502168C86073
:1026500000206064202084F8410084F842000020BB
:10266000606300BFC8E7000010B586B004460020D4
:1026700002900390049005901A49206888422ED158
:1026800000BF1948806940F48040174988610846B6
:10269000806900F48040019000BF00BF00BF084681
:1026A000806940F0040088610846806900F00400F9
:1026B000019000BF00BF4815029002200390032044
:1026C000059002A90948FEF779FC4FF4806002905A
:1026D00000200390049002A90448FEF76FFC06B0A6
:1026E00010BD000000380140001002400008014009
:1026F0002DE9F84F04460E46174699464FF0000A5A
:1027000094F8410020284AD106B117B90120BDE84C
:10271000F88F00206064212084F84100FEF7ECFD72
:102720008246A784E784A068B0F5805F04D1206961
:1027300010B90025B04602E035464FF000081BE016
:102740005346002280212046CDF8009001F00AF87F
:1027500008B10320DBE745B9B8F80000C0F3080072
:102760002168486008F1020803E028782168486081
:102770006D1CE08C401EE084E08C0028E0D15346C4
:10278000002240212046CDF8009000F0EBFF08B178
:102790000320BCE7202084F841000020B7E7022096
:1027A000B5E700BFFEE7014608684069C0F3802036
:1027B000B0B16FF480600A68506100200863202087
:1027C00081F83D00002081F83E00086C40F00400D4
:1027D000086400BF002081F83C0000BF0120704762
:1027E0000020FCE72DE9F84304460D4617469846BD
:1027F000E66A082E04D0012E02D016F5803F06D1DD
:102800002068006840F480702168086008E0206B50
:10281000122805D12068006840F4807021680860A3
:102820003B4600224FF001112046CDF8008000F019
:102830006CF860B12068006800F48070B0F5807FAB
:1028400002D14FF4007020640320BDE8F8832069B2
:10285000B0F5804F04D105F0FE002168086112E058
:1028600005F44070F02141EAE01021680861434618
:102870003A460B49204600F0A7F808B10120E4E7EA
:10288000E8B22168086143463A460549891F204657
:1028900000F09AF808B10120D7E70020D5E7000042
:1028A0000800010070B504460D46164625E0204696
:1028B000FFF779FF08B1012070BD681CE8B1FEF791
:1028C0001BFD801BA84200D8BDB920684069C0F339
:1028D000800090B900202063202084F83D00002073
:1028E00084F83E00206C40F02000206400BF0020EF
:1028F00084F83C0000BF0120DEE720684069C0F397
:1029000080000028D3D00020D6E72DE9F04104460E
:102910000D4617461E46DDF8188038E0701CA8B337
:10292000FEF7EAFCA0EB0800B04200D876BBC5F386
:10293000074001280AD120684069A9B20840A9B21D
:10294000884201D101200BE0002009E02068806965
:10295000A9B20840A9B2884201D1012000E00020BC
:10296000B84214D100202063202084F83D000020CC
:1029700084F83E00206C40F02000206400BF00205E
:1029800084F83C0000BF0120BDE8F081FFE7C5F3FB
:10299000074001280AD120684069A9B20840A9B2BD
:1029A000884201D101200BE0002009E02068806905
:1029B000A9B20840A9B2884201D1012000E000205C
:1029C000B842ABD00020DFE72DE9F04104460D46C8
:1029D00016461F4658E020684069C0F38020E8B1E1
:1029E0002068006840F40070216808606FF480601F
:1029F0002168486100202063202084F83D000020E9
:102A000084F83E00206C40F00400206400BF0020E9
:102A100084F83C0000BF0120BDE8F081701C90B339
:102A2000FEF76AFCC01BB04200D866BBC5F3074086
:102A300001280AD120684069A9B20840A9B2884299
:102A400001D101200BE0002009E020688069A9B2D3
:102A50000840A9B2884201D1012000E0002090B9CD
:102A600000202063202084F83D00002084F83E00F0
:102A7000206C40F02000206400BF002084F83C005F
:102A800000BF0120C8E7FFE7C5F3074001280AD1CE
:102A900020684069A9B20840A9B2884201D101204A
:102AA0000BE0002009E020688069A9B20840A9B2C3
:102AB000884201D1012000E0002000288BD00020B6
:102AC000AAE770B504460D46164625E02046FFF7F6
:102AD0006AFE08B1012070BD681CE8B1FEF70CFC6D
:102AE000801BA84200D8BDB920684069C0F3C0105F
:102AF00090B900202063202084F83D00002084F855
:102B00003E00206C40F02000206400BF002084F8CC
:102B10003C0000BF0120DEE720684069C0F3C01020
:102B20000028D3D00020D6E710B500224FF4004192
:102B30000848FEF7DBFB4FF4F07000F083F8012249
:102B4000D1030448FEF7D2FB4FF4F07000F07AF89E
:102B500010BD0000000C014070B5002400251FE0EE
:102B600000224FF400411048FEF7C0FB022000F0A5
:102B700069F80122D1030C48FEF7B8FB082000F0E9
:102B800061F864104FF400410748FEF7A7FB0128E5
:102B900001D144F08004322000F054F8681CC5B222
:102BA000082DDDDB204670BD000C014070B50446E9
:102BB00000250026FFF7B8FFCC2000F017F84420CE
:102BC00000F014F8FFF7B0FFCC2000F00FF8BE20A3
:102BD00000F00CF8FFF7C0FF0546FFF7BDFF064603
:102BE000281140EA0610207070BD000070B5044640
:102BF000002522E000224FF400411148FEF776FB49
:102C0000052000F01FF804F0010028B10122D103D3
:102C10000B48FEF76BFB05E000224FF4004108482B
:102C2000FEF764FB64103C2000F00CF80122D10395
:102C30000348FEF75BFB681CC5B2082DDADB70BDEC
:102C4000000C0140C10000E000BF0A1EA1F101011B
:102C5000FAD1704710B54FF480610448FEF73EFB8F
:102C600008B9002010BD0120FCE70000000C014065
:102C700010B5012202210648FEF738FB4FF4FA7026
:102C800001F018FC002202210148FEF72FFB10BDC5
:102C90000008014070B504460D4629462046FEF75F
:102CA0001DFB98B90F2001F005FC29462046FEF7D0
:102CB00015FB58B902E0012001F0FCFB2946204633
:102CC000FEF70CFB0028F6D0012070BD0020FCE7C9
:102CD00070B501213648FFF7DDFF012801D103203F
:102CE00070BD02213248FFF7D5FF012801D1042031
:102CF000F6E780212F48FFF7CDFF012801D10720FB
:102D0000EEE74FF480712B48FFF7C4FF012801D193
:102D10000820E5E704212648FEF7E0FA00BB0F2073
:102D200001F0C8FB04212248FEF7D8FAC0B901F02F
:102D3000C1FC054602E0012001F0BCFB04211C4857
:102D4000FEF7CCFA0028F6D001F0B4FC0446601B74
:102D500040F6B831884201D90220C1E70120BFE71F
:102D600040211448FEF7BAFA00BB0F2001F0A2FB85
:102D700040211048FEF7B2FAC0B901F09BFC0546AD
:102D800002E0012001F096FB40210A48FEF7A6FA76
:102D90000028F6D001F08EFC0446601B40F6B831E6
:102DA000884201D906209BE7052099E7002097E794
:102DB000000C01400008014010B54FF400610448C8
:102DC000FEF78CFA08B9002010BD0120FCE70000D6
:102DD000000C014008B504A0006800900322694679
:102DE000002000F005F908BDAE8D100008B504A064
:102DF0000068009003226946002000F0F9F808BD41
:102E00008D14AF001CB50021084600F015F9002014
:102E100000900190002406E008226946012000F09D
:102E2000E7F8601CC4B2802CF6DB1CBD70B504460C
:102E30000D4616466A06110EE206100E00F0FCF86A
:102E40001B4800EB86111022012000F0D1F86A0027
:102E5000521CD1B2E206100E00F0EEF8144800EB5E
:102E6000861000F110011022012000F0C1F86A0064
:102E7000921CD1B2E206100E00F0DEF80C4800EB16
:102E8000861000F120011022012000F0B1F86A0044
:102E9000D21CD1B2E206100E00F0CEF8044800EBCE
:102EA000861000F130011022012000F0A1F870BD61
:102EB000D84F000870B504460D4616466A06110E36
:102EC000E206100E00F0B8F80B4800EB06110822DD
:102ED000012000F08DF86A00521CD1B2E206100EFB
:102EE00000F0AAF8044800EB061000F108010822DF
:102EF000012000F07DF870BDD85200082DE9F041A6
:102F000006460F46154600247A06110EF206100EEC
:102F100000F092F80AE0285D2038134A02EB001115
:102F20000822012000F064F8601CC4B2285D00286B
:102F3000F1D17A00521CD1B2F206100E00F07CF8EA
:102F400000240CE0285D2038074A02EB001000F155
:102F500008010822012000F04BF8601CC4B2285D73
:102F60000028EFD1BDE8F081E849000870B50446BB
:102F70000D4616466A06110EE206100E00F05CF8C9
:102F80000B4800EB46111022012000F031F86A00D6
:102F9000521CD1B2E206100E00F04EF8044800EBCD
:102FA000461000F110011022012000F021F870BD40
:102FB000085300081CB5AE208DF800008D208DF858
:102FC000010014208DF80200C8208DF80300A12014
:102FD0008DF8040020208DF8050000208DF80600F3
:102FE0000722694600F004F8FFF70CFF1CBD000043
:102FF000F8B505460E4614461DB140200C49087030
:1030000002E000200A490870002004E0325C084B0E
:10301000411C5A54C8B2A042F8DB4FF47A700090B9
:10302000601C83B2024A78210248FEF753FAF8BDC9
:103030005C010020AC0000207CB505460C46002059
:103040000090019021208DF803008DF804507F201E
:103050008DF8050022208DF800008DF80140072032
:103060008DF80200062269460020FFF7C1FF7CBDF3
:1030700010B54FF480410448FEF730F908B900203C
:1030800010BD0120FCE70000000C014000B585B038
:103090000020019002900390049000BF4148806995
:1030A00040F010003F4988610846806900F0100038
:1030B000009000BF00BF00BF0846806940F02000BC
:1030C00088610846806900F02000009000BF00BFC2
:1030D00000BF0846806940F00400886108468069A6
:1030E00000F00400009000BF00BF00BF08468069E8
:1030F00040F0080088610846806900F008000090F0
:1031000000BF00BF002202212748FEF7EFF801228E
:10311000D1032648FEF7EAF8022001900120029030
:10312000002003900320049001A91F48FDF746FFEB
:103130004FF4E6700190002002900120039001A955
:103140001948FDF73BFF40F6074001900020029030
:103150000120039001A91548FDF730FF4FF480408E
:10316000019000200290039001A91048FDF726FF6E
:103170004FF40040019011200290002003900320A2
:10318000049001A90948FDF719FF4FF48050019000
:1031900000200290039001A90348FDF70FFF05B03E
:1031A00000BD00000010024000080140000C01407A
:1031B00010B50B480B4908600B48486000210948CE
:1031C0008160C1604FF480410161002141618161F2
:1031D000C1610162FEF796F808B1FDF7ECFE10BD83
:1031E00000540040AC000020A08601001CB5002067
:1031F000019000902A482B4908604FF0FF3048604A
:103200004FF4807127488160FFF74EF808B1FDF751
:10321000D2FE01212348FEF783FF00B11CBD192017
:103220008DF8040030208DF8050000208DF8060090
:10323000012201A91B48FFF733F908B1FDF7BBFED6
:1032400003208DF8000001208DF8010021208DF869
:10325000020026208DF80300012269461148FFF77D
:10326000A3F808B1FDF7A7FE012211460D48FEF7AD
:1032700063FF0C48C27B0221FEF75EFF0948427BD8
:103280000321FEF759FF0748827B0421FEF754FF14
:103290000448027B0521FEF74FFF00BFBEE7000098
:1032A000002800400001002010B50B480B490860C1
:1032B0004FF4E1304860002108488160C16001613D
:1032C0000C21416100218161C161FFF791F908B1D1
:1032D000FDF771FE10BD0000003801401401002010
:1032E00000BFFEE700BFFEE708B508490968C90846
:1032F0004FF47A72B1FBF2F14143009100BF00BF7D
:1033000000994A1E00920029F9D108BD0C00002046
:10331000014600BF080900EB8000420001F00F00E9
:103320001044C0B270470146002203E0521CA1F1D4
:103330000A00C1B20A29F9D2100741EA10607047A9
:103340002DE9F04706468846002700240025A146BF
:10335000F77B747BB57B00BF40E0012C0BD0032CC6
:1033600009D0052C07D0072C05D0082C03D00A2C37
:1033700001D00C2C0CD11F2D01D26D1C2CE00C2C7B
:1033800002D0641C012527E0012401257F1C23E0D5
:10339000042C05D0062C03D0092C01D00B2C06D10F
:1033A0001E2D01D26D1C17E0641C012514E0022CB7
:1033B00012D11C2D01D26D1C0EE01C2D08D1B8B20B
:1033C00000F053F808B16D1C06E0641C012503E011
:1033D0001D2D01D1641C012509F10109C145BCD392
:1033E000F7737473B573EAB2E1B2384600F07CF853
:1033F0003073BDE8F08770B504460025FDF77CFF0B
:10340000054607E0FDF778FF401BB0F57A7F01D94C
:10341000032070BD2068406800F020000028F1D033
:103420002068406840F01000216848600020F0E704
:1034300070B5044600252068406820F0100021681F
:103440004860FDF759FF054607E0FDF755FF401BB3
:10345000B0F57A7F01D9032070BD2068406800F084
:1034600020000028F1D00020F6E7014601F003001B
:1034700008B1002070476420B1FBF0F200FB12108D
:1034800008B10120F6E74FF4C870B1FBF0F200FB81
:10349000121008B90120EDE70020EBE701460022F9
:1034A00000230868006A82B20868406A83B243EA6F
:1034B0000240704730B5014600220023002400205E
:1034C0000D68AD69AAB20D68ED69ACB20D68AD6961
:1034D000ABB29A4205D00D68ED6963F31F452846EB
:1034E00001E044EA024030BDF0B504460B4600213D
:1034F000002504F5FA61032B1BD2C3EBC30000EBDC
:1035000003100926B0FBF6F01044001D4618481EB3
:1035100006EB90066427B0FBF7F0361A481EBF0092
:10352000B0FBF7F030440726B0FBF6F706FB1705B3
:103530001AE0C3EBC30000EB03100926B0FBF6F062
:103540001044001D084400EB91006426B1FBF6F620
:10355000801B4FF4C876B1FBF6F63044801E072678
:10356000B0FBF6F706FB1705E8B2F0BD70B50446F0
:103570000D4600262046FFF73EFF08B101260AE06F
:10358000280C21680862A8B2216848622046FFF72B
:103590004FFF00B10126304670BD70B504460D46A0
:1035A00000262046FFF727FF08B101260AE0280C75
:1035B00021688861A8B22168C8612046FFF738FFFA
:1035C00000B10126304670BD10B501F063F8012846
:1035D00001D001F011F8FEF76FF810BD00B593B0FF
:1035E000282109A8FCF7F3FD142104A8FCF7EFFD3E
:1035F00000200090019002900390052009904FF464
:1036000080300A9000200B9001200C900D90022039
:103610001090C10311914FF4E011129109A8FEF727
:103620004DFB08B1FDF7C7FC0F2004900220059068
:10363000002006904FF4806007900020089002213F
:1036400004A8FEF717FA08B1FDF7B5FC01200090B9
:10365000000201906846FEF775F908B1FDF7ABFC72
:1036600013B000BD7047000070B5044621680969B9
:1036700021F44051E2681143226811612269A16876
:103680001143626941EA02052168C96841F20C628E
:10369000914329432268D1602168496921F440712E
:1036A000A2691143226851612D4A2168914202D1D9
:1036B000FEF7BCFA01E0FEF7A9FA00EBC00101EB4E
:1036C000001162689200B1FBF2F100EBC00202EB64
:1036D000001263689B00B2FBF3F26423B2FBF3F2C7
:1036E00002EBC20303EB0212A1EB8201322202EBD6
:1036F00001116422B1FBF2F101F0F00100EBC00214
:1037000002EB001263689B00B2FBF3F26423B2FB8E
:10371000F3F201EB021200EBC00101EB0011636850
:103720009B00B1FBF3F100EBC00303EB00136668F1
:10373000B600B3FBF6F36426B3FBF6F303EBC30664
:1037400006EB0313A1EB8301322303EB0111642386
:10375000B1FBF3F101F00F0111442268916070BDDB
:10376000003801402DE9F04104460D4617469846C1
:10377000069E34E0701C88B32EB1FDF7BDFDA0EBB2
:103780000800B0422BD900BF00BF21680C3151E8BE
:10379000001F21F4D07021680C3141E80002002A9A
:1037A000F3D100BF00BF00BF2168143151E8001FF2
:1037B00021F001002168143141E80002002AF3D110
:1037C00000BF202084F8410084F8420000BF0020A0
:1037D00084F8400000BF0320BDE8F081FFE72068C7
:1037E00000682840A84201D1012000E00020B84232
:1037F000C0D00020F0E700BFFEE700000FB4054B8B
:1038000010B503A9044A029800F048F810BC5DF80E
:1038100014FB00007D3D0008A80000200FB4084BF9
:1038200010B504A902AA039800F038F8044602A9CA
:10383000002000F0D4F9204610BC5DF814FB000015
:10384000DF3B000802480068C0F302207047000018
:103850000CED00E010B5002804DB0A07130E054A42
:10386000135406E00A07140E034A00F00F031B1F4F
:10387000D45410BD00E400E018ED00E002E008C8F8
:10388000121F08C1002AFAD170477047002001E0DA
:1038900001C1121F002AFBD1704700002DE9FF4F24
:1038A0008BB088460546002606E025280BD0DDE9CA
:1038B0000D1290476D1C761C28780028F5D10FB0AA
:1038C0003046BDE8F08F0024A146A2460122AE4951
:1038D00000E0044315F8013F203B02FA03F00842E0
:1038E000F7D128782A2810D06FF02F022878A0F17D
:1038F0003001092915D809EB890102EB410144F097
:10390000020400EB01096D1CF0E758F8041B5FEAA4
:10391000010903D544F40054C9F1000944F002043C
:103920006D1C28782E2817D115F8010F44F00404D7
:103930002A280ED06FF02F022878A0F13001092933
:103940000AD80AEB8A0102EB410100EB010A6D1C67
:10395000F2E758F804AB6D1C28786C280FD006DC11
:103960004C2817D068280DD06A2814D104E0742898
:1039700010D07A280FD10DE044F400140AE044F48A
:10398000801401E044F440146978814202D104F5C6
:1039900080146D1C6D1C2878692865D006DC002811
:1039A0008DD0632827D0642806D15DE06E2808D02A
:1039B00073282AD0752877D0DDE90D129047761C40
:1039C000E0E0C4F30250022809D003280DD0D8F853
:1039D000001004280DD00E6008F10408D2E0D8F8D9
:1039E0000010F217C1E90062F6E7D8F800100E8067
:1039F000F2E70E70F0E718F8041B8DF800100020B5
:103A00008DF80100EB46012003E058F804BB4FF0AD
:103A1000FF3061074FF0000701D40AE07F1C5745D3
:103A20000DDA8742FADB1BF807100029F6D106E011
:103A30007F1C8742FCDB1BF807100029F8D1DDE969
:103A40000D23A9EB07008146214600F0B1F8304470
:103A5000C61904E0DDE90D121BF8010B90477F1E2B
:103A6000F8D22146484688E058F8040BC4F30251C6
:103A70004FF00A0B032900D100B2042900D140B253
:103A8000002802DA40422D2102E0210505D52B2134
:103A90008DF82410012104E006E0E10710D0202178
:103AA000F6E708AF089113E058F8040BC4F302518D
:103AB0004FF00A0B032900D180B2042900D1C0B213
:103AC0000021EEE75946FCF794FB303107F8011D61
:103AD0000028F7D1ADEB070000F1200B600702D5FD
:103AE00024F4803401E04FF0010ADA4502DDAAEB4C
:103AF0000B0000E00020824600EB0B010898014417
:103B0000A9EB01000A90E00306D4DDE90D2321466C
:103B10000A9800F04DF806444FF0000908E009A9A2
:103B200011F80900DDE90D12904709F10109761C31
:103B300008998945F3DBE0030CD5DDE90D23214627
:103B40000A9800F035F8064404E0DDE90D12302053
:103B50009047761CBAF10001AAF1010AF5DC05E0F4
:103B6000DDE90D1217F8010B9047761CBBF100013F
:103B7000ABF1010BF4DC0A982146DDE90D2300F0DE
:103B800005F806446D1C97E6092801002DE9F0416F
:103B9000044600251E461746880404D405E039462D
:103BA0002020B0476D1C641EF9D52846BDE8F08181
:103BB0002DE9F041044600251E469046C80301D574
:103BC000302700E02027880404D505E04146384628
:103BD000B0476D1C641EF9D52846BDE8F0810A681F
:103BE000531C0B601070704776E03C4880790228C7
:103BF00010D13B48007868B93848007839490978CD
:103C0000884207D13548407836494978884201D101
:103C1000FFF72EF83148C079022810D130480078DB
:103C200068B92E48C0782F490978884207D12B48B7
:103C300000792C494978884201D1FFF719F82748C3
:103C40008079012818D126480078A8B9264800783C
:103C5000012811DB2448007805280DDC1F48007876
:103C600020490978884207D11C4840781D49497885
:103C7000884201D1FEF7FCFF1848C079012818D10D
:103C800017480078A8B918480078012811DB1648B1
:103C9000007805280DDC1148C0781249097888425F
:103CA00007D10E4800790F494978884201D1FEF7C3
:103CB000DFFF0A4840780B494978884208D0074816
:103CC000007908494978884202D0002004490870E8
:103CD0004FF4487000F0EEFB87E700002A00002058
:103CE0002600002011000020170000203CE00221E7
:103CF0001E48FEF715FAC1B21C48C1730321FEF736
:103D00000FFAC1B2194841730421FEF709FAC1B292
:103D1000164881730521FEF703FA1449087300223F
:103D200013491248FEF73DFA002212490F48FEF7E8
:103D30000FFA0E48C27B0221FEF7FEF90B48427BC8
:103D40000321FEF7F9F90948827B0421FEF7F4F913
:103D50000648027B0521FEF7EFF90748FEF726FF2C
:103D60004FF47A7000F0A6FBC1E7000000010020CC
:103D700011000020170000201000002013B50C4691
:103D80004FF47A73012269460248FEF7B1FC0098AD
:103D90001CBD000014010020FDF79AFCFFF71EFC7B
:103DA000FFF774F9FFF780FAFFF720FAFFF700FA40
:103DB000FCF748FA00BFFEE72DE9F04105460E4644
:103DC0002648076826480068001D00F0E1FA50B94F
:103DD0002348006890F82C10012088402149096888
:103DE000814320480160681CD8B9D6B11E49486893
:103DF0001B49096888601A4982680968CA601849BD
:103E00000968091D8268516015490968091D8160AA
:103E1000154A134909684A6111460968491C11602D
:103E20001AE07C190E4800684460BC4207D20C4876
:103E30000168091D0D48006800F0CEFA0CE0084842
:103E40000168091D0A48006800F0C6FA09480068C0
:103E5000844201D207480460BDE8F0815C00002084
:103E600048000020600000203402002050000020A4
:103E70004C0000207800002010B5044600F0C6FA7F
:103E80002F480068401C2E4908602E48006840B941
:103E90002C4804600846006801280DD100F016F98E
:103EA0000AE02948006838B926480068C06AE16A13
:103EB000884201D82348046024480068401C2349F4
:103EC000086094F82C1001208840214909680843B3
:103ED0001F490860E16A01EB81011E4A02EB810182
:103EE0004868A0608268E260211D8268516081603C
:103EF000E16A01EB8101174A02EB81026261E16A2A
:103F000001EB8101134A52F82110491CE26A02EBCD
:103F10008202104B43F8221000F08AFA0A48006827
:103F200068B108480068C06AE16A884207D24FF069
:103F3000805009490860BFF34F8FBFF36F8F10BDEA
:103F40005800002048000020640000207400002079
:103F5000600000208001002004ED00E010B516E0B4
:103F600000F054FA0C48C068C468201D00F010FA34
:103F70000A480068401E0949086009480068401E58
:103F80000749086000F054FA204600F00BF8044896
:103F900000680028E4D110BD200200205800002055
:103FA0005400002010B50446206B00F051FA204662
:103FB00000F04EFA10BD000030B54FF488431548AC
:103FC00000F007042CB1C01D20F00700114C041BA9
:103FD0001B1B0246104C226000240F4D6C60D01851
:103FE000083820F007000D4C206000240B4D2D6890
:103FF0006C600A4D2D682C601146441A4C60074CC9
:1040000024680C60064D4C682C60064D4C682C6092
:1040100030BD0000480200208800002090000020F1
:10402000980000209400002000BFFFF797FF06488B
:1040300000680128F9D94FF0805004490860BFF3A7
:104040004F8FBFF36F8FF0E78001002004ED00E099
:104050002DE9FF5F80460E469146DDE90E7A109C01
:10406000A9F10100216B01EB800B2BF0070B7EB156
:10407000002507E0715D04F134004155705D00B921
:1040800002E06D1C102DF5D300BF00214320015527
:10409000052F00D30427E762201D00F09AF904F1F0
:1040A000180000F096F92461C7F10500A061646270
:1040B00041465846039A00F007F92060BAF1000F14
:1040C00001D0CAF80040BDE8FF9F000010B50024F1
:1040D00007E004EB84010F4A02EB810000F06CF969
:1040E000641C052CF5D30C4800F066F90B4800F071
:1040F00063F90B4800F060F90A4800F05DF90A48DE
:1041000000F05AF904480949086004480849086061
:1041100010BD000080010020E4010020F801002013
:104120000C02002020020020340200204C0000205D
:104130005000002010B50146164800E000680368F2
:104140008B42FBD30246436813448B4204D143683D
:104150004C682344436001460A464B681344046894
:10416000A34211D10C4C03682468A34208D04B68C9
:104170000468646823444B6003681B680B6005E0B7
:10418000054B1B680B6001E003680B60884200D0A0
:10419000016010BD880000209000002009480068E0
:1041A000006808B9012000E0002020B14FF0FF3086
:1041B0000549086005E003480068C06800680249D6
:1041C000086070474C0000207800002000BFBF202E
:1041D00080F31188BFF34F8FBFF36F8F00BF00BF15
:1041E000FEE700002DE9F04705464FF0000900F01A
:1041F000B1F93048006808B9FFF7DEFE75B105F087
:104200000700C0F11008C8F1FF30A84201D2012018
:1042100000E0002008B9454400E00025012000EB43
:10422000E570002841D0002D3FD02348006885422A
:104230003BD8224E3046046801E026462468606878
:10424000A84202D220680028F7D11A4800688442A8
:104250002BD0306800F10809206830606068401B8E
:10426000102807D967196068401B78606560384678
:10427000FFF760FF104960680968081A0E49086076
:10428000084600680E490968884203D20A48006857
:104290000B490860606840F00040606000202060CA
:1042A00008480068401C0749086000F0D1FA4846F9
:1042B000BDE8F087900000209400002088000020D6
:1042C000980000209C000020001F4FF080730360C6
:1042D000001F21F001030360001F034B036014382B
:1042E0000260203870470000CD410008FCF726F836
:1042F0002AE01648007808B315480078F0B9154848
:10430000007830B900F082F8FCF774F800F090F80B
:1043100014E010480078012806D100F077F8FCF787
:1043200013F900F085F809E00A480078022805D161
:1043300000F06CF8FCF76AF800F07AF8FCF7AEF9D8
:104340004FF4FA7000F0B6F8D3E700002000002028
:10435000240000202700002017E00C48007810B946
:10436000FCF780FB0CE009480078012802D1FCF73B
:10437000F9FC05E005480078022801D1FCF706FCAD
:10438000FCF7EEFD142000F095F8E6E7270000208A
:1043900001460A69D1E901309860D1E9010358600A
:1043A0005068884201D18868506000200861106818
:1043B000401E10601068704700F1080141604FF026
:1043C000FF31816000F10801C160016100210160DD
:1043D000704700210161704710B502460B685C1CF4
:1043E0000CB9106907E002F1080000E04068446879
:1043F00024689C42FAD944684C604C68A16088608B
:1044000041600A611468641C146010BD00BFBF20C5
:1044100080F31188BFF34F8FBFF36F8F00BF034846
:104420000068401C0149086070470000A40000209B
:1044300006480068401E054908600846006820B923
:10444000002080F3118800BF00BF7047A400002047
:1044500070B506463546E6B1083D2C466068C00F8B
:10446000B8B12068A8B9606820F00040606000F032
:1044700071F80849606809680844064908602046E0
:10448000FFF758FE04480068401C0349086000F02C
:10449000DFF970BD94000020A000002000204FF044
:1044A000E02108618861024848610720086170477F
:1044B0003F19010070B50446002544B100F04AF8E8
:1044C00000212046FFF778FC00F0C2F905463DB90F
:1044D0004FF0805003490860BFF34F8FBFF36F8FD9
:1044E00070BD000004ED00E01CB5124800210B4631
:1044F0008022CDE9001010A1114800F097F8044681
:10450000012C14D100BFBF2080F31188BFF34F8F5F
:10451000BFF36F8F00BF4FF0FF300A4908600120E2
:104520000949086000200949086000F04BF8084874
:1045300000681CBD7C00002049444C450000000080
:104540002940000878000020640000205C00002062
:104550008000002002480068401C01490860704744
:10456000840000201248006818B101201149086039
:104570001DE000200F4908600F480068B0FA80F085
:10458000C0F11F0101EB81020C4B03EB820042687A
:104590005268426000F108024368934202D14268C7
:1045A000526842604268D268054B1A6000BF70478B
:1045B000840000206C0000206000002080010020AA
:1045C0004800002010B50A48006840F47F00084900
:1045D00008600846006840F07F400860FFF75EFF13
:1045E000002004490860FBF79FFD002010BD00007B
:1045F00020ED00E0A400002010B500BFBF2080F334
:104600001188BFF34F8FBFF36F8F00BF00F058F8D2
:1046100018B14FF080500449086000BF002080F3BB
:10462000118800BF10BD000004ED00E02DE9FF4F30
:1046300085B0804689461746DDE912ABB800FFF722
:10464000D1FD064676B14C20FFF7CCFD04462CB1D7
:104650004C212046FBF7BBFD266304E03046FFF704
:10466000F7FE00E000247CB10020CDE900ABCDE9ED
:1046700002403A4649464046089BFFF7E9FC20467F
:10468000FFF7FAFB012501E04FF0FF35284609B09E
:10469000BDE8F08F0549096809B9012005E0044922
:1046A000096809B9022000E000207047640000207A
:1046B0008400002001490868704700005C00002069
:1046C0002DE9F04100275748006800287ED1564860
:1046D0000068451C544805608DB95448D0F80080E6
:1046E00053480068514908605148C0F8008051485B
:1046F0000068401C4F490860FFF750FD00BF4E485E
:104700000068854276D300BF48480068006808B951
:10471000012000E0002020B14FF0FF304649086042
:1047200067E042480068C068C4686668B54202D263
:10473000414806605DE06069D4E902128A60D4E90C
:1047400002214A60211D42688A4201D1E16841602C
:10475000002262610168491E0160A06A98B1A06AE6
:10476000D4E907128A60D4E907214A6004F11801EC
:1047700042688A4201D1216A41600022A262016836
:10478000491E016000BF94F82C10012088402B497D
:104790000968084329490860E16A01EB8101284A58
:1047A00002EB81014868A0608268E260211D826896
:1047B00051608160E16A01EB8101214A02EB8102D3
:1047C0006261E16A01EB81011D4A00E022E052F8DA
:1047D0002110491CE26A02EB8202194B43F82210B5
:1047E0001849E06A0968C96A88428DD901278BE7B0
:1047F00000E000BF13480068C06A00EB8000104969
:1048000051F82000012800D901270F48006800B1A5
:10481000012704E00D480068401C0C490860384638
:10482000BDE8F081840000205C0000204C000020E6
:104830005000002070000020780000206000002060
:1048400080010020480000206C000020680000204B
:1048500070B500240026FFF7D9FD4B480068401EC4
:10486000494908600846006800287DD1474800682B
:10487000002879D05BE04648C068C468A06AD4E9E3
:1048800007128A60D4E907214A6004F118014268DE
:104890008A4201D1216A41600022A2620168491E58
:1048A00001606069D4E902128A60D4E902214A6099
:1048B000211D42688A4201D1E168416000226261A3
:1048C0000168491E016094F82C100120884031498C
:1048D000096808432F490860E16A01EB81012E4A0B
:1048E00002EB81014868A0608268E260211D826855
:1048F00051608160E16A01EB8101274A02EB81028C
:104900006261E16A01EB8101234A52F82110491CDE
:10491000E26A02EB8202204B43F822101F49E06A50
:104920000968C96A884202D301201D4908601848F5
:10493000006808B9012000E0002000289BD00CB1DD
:10494000FFF72CFC1748056865B100BFFFF7B8FEFC
:1049500010B10120124908606D1E002DF6D1002013
:10496000104908600E4800E009E0006838B10126EF
:1049700030070D490860BFF34F8FBFF36F8FFFF70C
:1049800057FD304670BD0000840000205800002014
:104990000C02002060000020800100204800002060
:1049A0006C0000206800002004ED00E00203040514
:1049B000060708090A0B0C0D0E0F10100102020366
:1049C0000405060708090A0B0C0D0E0F1010010252
:1049D00000000000000000000102030406070809AF
:1049E00000000000010203040000000000000000BD
:1049F0000000000000000000000000F800000000BF
:104A0000000000333000000000100C06100C0600FF
:104A1000000000000000000040C07840C078400066
:104A2000043F04043F040400007088FC08300000C8
:104A3000001820FF211E0000F008F000E018000020
:104A400000211C031E211E0000F0088870000000D9
:104A50001E2123241927211010160E00000000002B
:104A60000000000000000000000000E01804020048
:104A7000000000071820400000020418E0000000B9
:104A80000040201807000000404080F080404000B7
:104A90000202010F01020200000000F0000000000D
:104AA0000101011F010101000000000000000000E1
:104AB00080B0700000000000000000000000000056
:104AC00000010101010101010000000000000000DF
:104AD000003030000000000000000000806018047A
:104AE000006018060100000000E010080810E00057
:104AF000000F102020100F00001010F80000000020
:104B00000020203F20200000007008080888700066
:104B100000302824222130000030088888483000E6
:104B20000018202020110E000000C02010F8000006
:104B300000070424243F240000F80888880808009F
:104B40000019212020110E0000E0108888180000B4
:104B5000000F112020110E0000380808C838080086
:104B60000000003F00000000007088080888700006
:104B7000001C222121221C0000E010080810E00087
:104B80000000312222110F00000000C0C000000010
:104B90000000003030000000000000800000000035
:104BA000000080600000000000008040201008002D
:104BB00000010204081020004040404040404000F6
:104BC00004040404040404000008102040800000D1
:104BD0000020100804020100007048080808F000D6
:104BE0000000003036010000C030C828E810E000A6
:104BF0000718272423140B000000C038E000000031
:104C0000203C23020227382008F88888887000009A
:104C1000203F202020110E00C0300808080838006E
:104C2000071820202010080008F808080810E000E5
:104C3000203F202020100F0008F88888E808100086
:104C4000203F20202320180008F88888E80810005A
:104C5000203F200003000000C03008080838000092
:104C600007182020221E020008F808000008F80893
:104C7000203F210101213F20000808F8080800001A
:104C80000020203F2020000000000808F80808004D
:104C9000C08080807F00000008F888C028180800C5
:104CA000203F20012638200008F8080000000000FE
:104CB000203F20202020300008F8F800F8F80800F5
:104CC000203F003F003F200008F830C00008F808EF
:104CD000203F200007183F00E01008080810E000FF
:104CE0000F10202020100F0008F808080808F00016
:104CF000203F210101010000E01008080810E00039
:104D00000F18242438504F0008F8888888887000CD
:104D1000203F2000030C302000708808080838006D
:104D20000038202121221C00180808F80808180063
:104D30000000203F2000000008F808000008F808E4
:104D4000001F202020201F000878880000C8380895
:104D5000000007380E010000F80800F80008F8000D
:104D6000033C0700073C03000818688080681808A7
:104D700020302C03032C30200838C800C838080025
:104D80000000203F2000000010080808C838080074
:104D90002038262120201800000000FE0202020018
:104DA0000000007F40404000000C30C000000000C8
:104DB000000000010638C00000020202FE000000F0
:104DC000004040407F000000000004020202040096
:104DD00000000000000000000000000000000000D3
:104DE00080808080808080800002020400000000BB
:104DF00000000000000000000000808080800000B3
:104E00000019242222223F2008F8008080000000A0
:104E1000003F112020110E00000000808080000063
:104E2000000E112020201100000000808088F80072
:104E3000000E112020103F200000808080800000A4
:104E4000001F222222221300008080F08888881808
:104E50000020203F20200000000080808080800013
:104E6000006B94949493600008F8008080800000A8
:104E7000203F210000203F20008098980000000083
:104E80000020203F202000000000008098980000B3
:104E900000C08080807F000008F8000080808000D3
:104EA000203F24022D302000000808F800000000F8
:104EB0000020203F202000008080808080808000B3
:104EC000203F20003F20003F808000808080000045
:104ED000203F210000203F200000808080800000D3
:104EE000001F202020201F00808000808000000004
:104EF00080FFA12020110E00000000808080800033
:104F0000000E112020A0FF80808080008080800023
:104F100020203F2120000100000080808080800050
:104F20000033242424241900008080E080800000C5
:104F30000000001F20200000808000000080800012
:104F4000001F202020103F20808080000080808073
:104F500000010E3008060100808000800080808003
:104F60000F300C030C300F00008080008080800028
:104F70000020312E0E312000808080000080808053
:104F800080818E7018060100008080808080800003
:104F90000021302C2221300000000000807C020221
:104FA00000000000003F404000000000FF00000043
:104FB00000000000FF0000000002027C80000000F2
:104FC0000040403F0000000000060101020204040E
:104FD0000000000000000000000000000080C04051
:104FE00040408000000000000000F0FE0F010000C3
:104FF00000000107FEF0000000003FFFC0000000BD
:1050000000000080FF3F00000000000103060C08C4
:1050100008080603010000000000000000000080F6
:10502000C00000000000000000000001010101FFBD
:10503000FF0000000000000000000000000000FF72
:10504000FF000000000000000000000808080C0F2E
:105050000F0C0808080000000000000080404040DD
:105060004040C0808000000000001E1900000000C9
:10507000000000C1FF3E000000000000804030182A
:105080000C06030100C0000000000E0D0C0C0C0CFF
:105090000C0C0C0C0E03000000000080804040400F
:1050A00040C080000000000000000F0F0000000062
:1050B0000080C17F3E0000000000C0C00000010170
:1050C00001030206FCF000000000030704080808C2
:1050D00008080406030000000000000000000000B3
:1050E00000C0C00000000000000000008060100C44
:1050F00003FFFF000000000000302C2621202020AC
:1051000020FFFF2020200000000000000000080811
:10511000080F0F080808000000000000C0C0C0C051
:10512000C0C0C0C0C0C00000000000FF0080404000
:105130004040C080000000000000C0C3010000002B
:1051400000000001FFFC0000000003040408080840
:1051500008080407030000000000000000808040F1
:1051600040404080800000000000E0FC0781C0401B
:105170004040C0830300000000007FFF8300000068
:1051800000000001FFFC00000000000107060C0801
:1051900008080C0603000000000000C0C0C0C0C02A
:1051A000C0C0C0C0C0C0000000000E03000000006E
:1051B00000E0180601000000000000000000C0FC34
:1051C00003000000000000000000000000000F0FBE
:1051D00000000000000000000000000080C040400F
:1051E0004040C0800000000000003E7FF1C0C08051
:1051F000000080417F1E000000F0FC0E0201010152
:1052000003070E1EFCF00000000103060408080856
:1052100008080406030100000000008080404040B0
:10522000404080000000000000FCFF030000000080
:1052300000000003FEF80000000103070C08080846
:10524000080406E17F1F000000000707080808089F
:105250000C06030100000000000000000000000038
:105260000000000000000000000000000000C0E09E
:10527000E0C000000000000000000000000000018D
:105280000100000000000000000000000000060F08
:105290000F060000000000000000000000000000F9
:1052A00000000000000000000000000000000000FE
:1052B00000000000000000000000000000000000EE
:1052C00000000000000000000000000000000000DE
:1052D00000000000000000000080E0F8FEC7C000F1
:1052E0000003E37F1F070100FE02FBFBFBFB02FE46
:1052F000FF80BFBFBFBF80FF00F0F8FCFCF8F000EC
:1053000006071F3F3F1F07060000FE82929292FE93
:1053100092929282FE00000080601F00001E121216
:10532000121E40807F00000080808080808080800E
:1053300080808080808080000000000000000000ED
:10534000000000000000000000000808080808082D
:1053500008080808080000001010101010101010A5
:1053600010101010101010000004848484848484B1
:105370008484848484040000202020202020202095
:10538000202020202020200000FC040404FC040431
:1053900004FC040404FC0000007F282423202020B7
:1053A00020212222227F00000002424242C27E428D
:1053B000424242C202020000404040407847404022
:1053C0004040407F404040002020202020202122DB
:1053D0002C20202020202000004020100C03000062
:1053E0000001020418600000000000FE8282828238
:1053F000828282FE00000000000000FF404040402A
:10540000404040FF0000000000001011161010F096
:1054100010101413100000008181414121110D036F
:105420000D1121414181810000040404040404FCA5
:105430000404040404040000202020202020203F35
:10544000202020202020200020100CF31212529245
:10545000121212F20202000001011F11111115199E
:105460005191513F111101000000E0F0F8F8F0E017
:10547000E0F0F8F8F0E000000000000103070F1F63
:105480001F0F070301000000060909E6F80C0402DB
:1054900002020202041E0000000000071F3020402C
:1054A0004040404020100000C85400080000002088
:1054B000AC0000007C38000874550008AC000020E7
:1054C0009C4900008C38000800000000100000001B
:1054D000010000000024F4000000000000000000B3
:1054E00000000000000000010101000000000000B9
:1054F0000000070000071E00000000000000000080
:105500000000000000000000000000000000020099
:10551000000000000000000000000000000000008B
:10552000000000000000000000000000000000007B
:10553000000000000000000000000000000000006B
:105540000000000000000000040000000000000057
:10555000000000000000000000000000000000004B
:10556000000000000000000000000000AAAAAAAA93
:045570000000000037
:04000005080000ED02
:00000001FF
